{
  "contractName": "Betting2",
  "abi": [
    {
      "constant": true,
      "inputs": [
        {
          "name": "",
          "type": "address"
        }
      ],
      "name": "playerInfo",
      "outputs": [
        {
          "name": "amountBet",
          "type": "uint256"
        },
        {
          "name": "teamSelected",
          "type": "uint16"
        }
      ],
      "payable": false,
      "stateMutability": "view",
      "type": "function"
    },
    {
      "constant": true,
      "inputs": [],
      "name": "totalBetsTwo",
      "outputs": [
        {
          "name": "",
          "type": "uint256"
        }
      ],
      "payable": false,
      "stateMutability": "view",
      "type": "function"
    },
    {
      "constant": true,
      "inputs": [],
      "name": "totalBetsOne",
      "outputs": [
        {
          "name": "",
          "type": "uint256"
        }
      ],
      "payable": false,
      "stateMutability": "view",
      "type": "function"
    },
    {
      "constant": true,
      "inputs": [],
      "name": "owner",
      "outputs": [
        {
          "name": "",
          "type": "address"
        }
      ],
      "payable": false,
      "stateMutability": "view",
      "type": "function"
    },
    {
      "constant": true,
      "inputs": [],
      "name": "minimumBet",
      "outputs": [
        {
          "name": "",
          "type": "uint256"
        }
      ],
      "payable": false,
      "stateMutability": "view",
      "type": "function"
    },
    {
      "constant": true,
      "inputs": [
        {
          "name": "",
          "type": "uint256"
        }
      ],
      "name": "players",
      "outputs": [
        {
          "name": "",
          "type": "address"
        }
      ],
      "payable": false,
      "stateMutability": "view",
      "type": "function"
    },
    {
      "inputs": [],
      "payable": false,
      "stateMutability": "nonpayable",
      "type": "constructor"
    },
    {
      "payable": true,
      "stateMutability": "payable",
      "type": "fallback"
    },
    {
      "constant": false,
      "inputs": [],
      "name": "kill",
      "outputs": [],
      "payable": false,
      "stateMutability": "nonpayable",
      "type": "function"
    },
    {
      "constant": false,
      "inputs": [
        {
          "name": "_teamSelected",
          "type": "uint8"
        }
      ],
      "name": "bet",
      "outputs": [],
      "payable": true,
      "stateMutability": "payable",
      "type": "function"
    },
    {
      "constant": false,
      "inputs": [
        {
          "name": "teamWinner",
          "type": "uint16"
        }
      ],
      "name": "distributePrizes",
      "outputs": [],
      "payable": false,
      "stateMutability": "nonpayable",
      "type": "function"
    },
    {
      "constant": true,
      "inputs": [],
      "name": "AmountOne",
      "outputs": [
        {
          "name": "",
          "type": "uint256"
        }
      ],
      "payable": false,
      "stateMutability": "view",
      "type": "function"
    },
    {
      "constant": true,
      "inputs": [],
      "name": "AmountTwo",
      "outputs": [
        {
          "name": "",
          "type": "uint256"
        }
      ],
      "payable": false,
      "stateMutability": "view",
      "type": "function"
    }
  ],
  "bytecode": "0x608060405234801561001057600080fd5b50336000806101000a81548173ffffffffffffffffffffffffffffffffffffffff021916908373ffffffffffffffffffffffffffffffffffffffff160217905550655af3107a400060018190555061097d8061006d6000396000f3fe60806040526004361061009c5760003560e01c80637904f688116100645780637904f688146101aa5780638afadeb5146101e95780638da5cb5b14610214578063c38a8afd1461026b578063d0821b0e14610296578063f71d96cb146102c75761009c565b806341c0e1b51461009e5780634996d51d146100b55780634b114691146100e05780635bf6b19f14610154578063657335921461017f575b005b3480156100aa57600080fd5b506100b3610342565b005b3480156100c157600080fd5b506100ca6103d3565b6040518082815260200191505060405180910390f35b3480156100ec57600080fd5b5061012f6004803603602081101561010357600080fd5b81019080803573ffffffffffffffffffffffffffffffffffffffff1690602001909291905050506103dd565b604051808381526020018261ffff1661ffff1681526020019250505060405180910390f35b34801561016057600080fd5b5061016961040f565b6040518082815260200191505060405180910390f35b34801561018b57600080fd5b50610194610415565b6040518082815260200191505060405180910390f35b3480156101b657600080fd5b506101e7600480360360208110156101cd57600080fd5b81019080803561ffff16906020019092919050505061041f565b005b3480156101f557600080fd5b506101fe61072d565b6040518082815260200191505060405180910390f35b34801561022057600080fd5b50610229610733565b604051808273ffffffffffffffffffffffffffffffffffffffff1673ffffffffffffffffffffffffffffffffffffffff16815260200191505060405180910390f35b34801561027757600080fd5b50610280610758565b6040518082815260200191505060405180910390f35b6102c5600480360360208110156102ac57600080fd5b81019080803560ff16906020019092919050505061075e565b005b3480156102d357600080fd5b50610300600480360360208110156102ea57600080fd5b81019080803590602001909291905050506108a0565b604051808273ffffffffffffffffffffffffffffffffffffffff1673ffffffffffffffffffffffffffffffffffffffff16815260200191505060405180910390f35b6000809054906101000a900473ffffffffffffffffffffffffffffffffffffffff1673ffffffffffffffffffffffffffffffffffffffff163373ffffffffffffffffffffffffffffffffffffffff1614156103d1576000809054906101000a900473ffffffffffffffffffffffffffffffffffffffff1673ffffffffffffffffffffffffffffffffffffffff16ff5b565b6000600254905090565b60056020528060005260406000206000915090508060000154908060010160009054906101000a900461ffff16905082565b60035481565b6000600354905090565b6104276108dc565b600080905060008090506000809050600080600080600090505b600480549050811015610543576004818154811061045b57fe5b9060005260206000200160009054906101000a900473ffffffffffffffffffffffffffffffffffffffff1691508861ffff16600560008473ffffffffffffffffffffffffffffffffffffffff1673ffffffffffffffffffffffffffffffffffffffff16815260200190815260200160002060010160009054906101000a900461ffff1661ffff161415610536578188886103e881106104f657fe5b602002019073ffffffffffffffffffffffffffffffffffffffff16908173ffffffffffffffffffffffffffffffffffffffff168152505086806001019750505b8080600101915050610441565b5060018861ffff161415610560576003549450600254935061056b565b600254945060035493505b60008090505b8681101561069b57600073ffffffffffffffffffffffffffffffffffffffff1688826103e8811061059e57fe5b602002015173ffffffffffffffffffffffffffffffffffffffff16146105d35787816103e881106105cb57fe5b602002015193505b600560008573ffffffffffffffffffffffffffffffffffffffff1673ffffffffffffffffffffffffffffffffffffffff16815260200190815260200160002060000154925087816103e8811061062557fe5b602002015173ffffffffffffffffffffffffffffffffffffffff166108fc612710876127108a028161065357fe5b046127100186028161066157fe5b049081150290604051600060405180830381858888f1935050505015801561068d573d6000803e3d6000fd5b508080600101915050610571565b50600560008273ffffffffffffffffffffffffffffffffffffffff1673ffffffffffffffffffffffffffffffffffffffff1681526020019081526020016000206000808201600090556001820160006101000a81549061ffff02191690555050600060048161070a9190610900565b506000945060009350600060028190555060006003819055505050505050505050565b60025481565b6000809054906101000a900473ffffffffffffffffffffffffffffffffffffffff1681565b60015481565b34600560003373ffffffffffffffffffffffffffffffffffffffff1673ffffffffffffffffffffffffffffffffffffffff168152602001908152602001600020600001819055508060ff16600560003373ffffffffffffffffffffffffffffffffffffffff1673ffffffffffffffffffffffffffffffffffffffff16815260200190815260200160002060010160006101000a81548161ffff021916908361ffff16021790555060043390806001815401808255809150509060018203906000526020600020016000909192909190916101000a81548173ffffffffffffffffffffffffffffffffffffffff021916908373ffffffffffffffffffffffffffffffffffffffff1602179055505060018160ff16141561088c573460026000828254019250508190555061089d565b346003600082825401925050819055505b50565b600481815481106108ad57fe5b906000526020600020016000915054906101000a900473ffffffffffffffffffffffffffffffffffffffff1681565b60405180617d0001604052806103e890602082028038833980820191505090505090565b81548183558181111561092757818360005260206000209182019101610926919061092c565b5b505050565b61094e91905b8082111561094a576000816000905550600101610932565b5090565b9056fea165627a7a723058205ef327474bc30f626b8a701b8ea459cb4395f39645e264308cefd8bc1919c4e50029",
  "source": "pragma solidity >0.4.99;\ncontract Betting2 {\n   address payable public owner;\n   uint256 public minimumBet;\n   uint256 public totalBetsOne;\n   uint256 public totalBetsTwo;\n   address payable[] public players;\n   struct Player {\n      uint256 amountBet;\n      uint16 teamSelected;\n    }\n// The address of the player and => the user info\n   mapping(address => Player) public playerInfo;\n   function() external payable {}\n   \n  constructor() public {\n      owner = msg.sender;\n      minimumBet = 100000000000000;\n    }\nfunction kill() public {\n      if(msg.sender == owner) selfdestruct(owner);\n    }\n    \nfunction bet(uint8 _teamSelected) public payable {\n//We set the player informations : amount of the bet and selected team\n      playerInfo[msg.sender].amountBet = msg.value;\n      playerInfo[msg.sender].teamSelected = _teamSelected;\n//then we add the address of the player to the players array\n      players.push(msg.sender);\n//at the end, we increment the stakes of the team selected with the player bet\n      if ( _teamSelected == 1){\n          totalBetsOne += msg.value;\n      }\n      else{\n          totalBetsTwo += msg.value;\n      }\n    }\n    // Generates a number between 1 and 10 that will be the winner\n    function distributePrizes(uint16 teamWinner) public {\n      address payable[1000] memory winners;\n      //We have to create a temporary in memory array with fixed size\n      //Let's choose 1000\n      uint256 count = 0; // This is the count for the array of winners\n      uint256 LoserBet = 0; //This will take the value of all losers bet\n      uint256 WinnerBet = 0; //This will take the value of all winners bet\n      address add;\n      uint256 bet;\n      address payable playerAddress;\n//We loop through the player array to check who selected the winner team\n      for(uint256 i = 0; i < players.length; i++){\n         playerAddress = players[i];\n//If the player selected the winner team\n         //We add his address to the winners array\n         if(playerInfo[playerAddress].teamSelected == teamWinner){\n            winners[count] = playerAddress;\n            count++;\n         }\n      }\n//We define which bet sum is the Loser one and which one is the winner\n      if ( teamWinner == 1){\n         LoserBet = totalBetsTwo;\n         WinnerBet = totalBetsOne;\n      }\n      else{\n          LoserBet = totalBetsOne;\n          WinnerBet = totalBetsTwo;\n      }\n//We loop through the array of winners, to give ethers to the winners\n      for(uint256 j = 0; j < count; j++){\n          // Check that the address in this fixed array is not empty\n         if(winners[j] != address(0))\n            add = winners[j];\n            bet = playerInfo[add].amountBet;\n            //Transfer the money to the user\n            winners[j].transfer(    (bet*(10000+(LoserBet*10000/WinnerBet)))/10000 );\n      }\n      \n      delete playerInfo[playerAddress]; // Delete all the players\n      players.length = 0; // Delete all the players array\n      LoserBet = 0; //reinitialize the bets\n      WinnerBet = 0;\n      totalBetsOne = 0;\n      totalBetsTwo = 0;\n    }\nfunction AmountOne() public view returns(uint256){\n       return totalBetsOne;\n    }\nfunction AmountTwo() public view returns(uint256){\n       return totalBetsTwo;\n    }\n}",
  "sourcePath": "/Users/michaelamar/Desktop/BlockchainProject/eth/contracts/Betting2.sol",
  "compiler": {
    "name": "solc",
    "version": "0.5.8+commit.23d335f2.Emscripten.clang"
  },
  "schemaVersion": "3.0.11",
  "updatedAt": "2019-07-10T16:01:53.306Z",
  "devdoc": {
    "methods": {}
  },
  "userdoc": {
    "methods": {}
  }
}